:020000040800F2
:10000000A0A30020512100081D2100081F21000885
:1000100021210008232100082521000800000000FC
:100020000000000000000000000000003D1C00086F
:100030002721000800000000E51B00082921000816
:100040009121000895210008992100089D210008B0
:10005000A1210008A5210008A9210008AD21000860
:10006000B1210008B5210008B9210008BD21000810
:10007000C1210008C5210008C9210008CD210008C0
:10008000D1210008D5210008D9210008DD21000870
:10009000E1210008E5210008E9210008ED21000820
:1000A000F1210008F5210008F9210008FD210008D0
:1000B0000122000805220008092200080D2200087C
:1000C0001122000815220008192200081D2200082C
:1000D0002122000825220008292200082D220008DC
:1000E0003122000835220008392200083D2200088C
:1000F0004122000845220008492200084D2200083C
:100100005122000855220008592200085D220008EB
:100110006122000865220008C90B00086922000856
:100120006D2200087122000875220008792200085B
:100130007D2200088122000885220008892200080B
:100140008D220008912200089522000899220008BB
:100150009D220008A1220008A5220008A92200086B
:10016000AD220008B1220008B5220008B92200081B
:10017000BD220008C1220008C522000800000000BE
:10018000C9220008CD2200087CB50400002C01D152
:10019000012011E32078C00659D5DFF8D4080068A3
:1001A00010F00C0F40F09E80DFF8C0080068800758
:1001B00004D5A069002801D10120FDE2DFF8AC08D8
:1001C0000068000705D5DFF8A408006810F0F0000B
:1001D00005E0DFF834090068000910F0F000216A3A
:1001E00088425BD2206A00F049FC002801D001203F
:1001F000E2E2DFF87808006850F00800DFF86C18D9
:100200000860DFF86808016831F0F001206A0143F6
:10021000DFF858080160DFF8F408006830F47F4028
:10022000E16950EA0120DFF8E418086000F07DFB86
:10023000DFF8DC18DFF838281268C2F30312895C93
:10024000C840DFF830180860002000F075FC207806
:10025000C00740F1EA80DFF81808006810F00C00D1
:1002600008280FD0DFF80808006810F00C000C28F0
:1002700040F08880DFF80008006810F003000328D1
:1002800040F08080DFF8E4070068800340F1CD8013
:100290006068002840F0C98001208DE2DFF8CC07BB
:1002A000006850F00800DFF8C4170860DFF8BC07EA
:1002B000016831F0F001206A0143DFF8B007016006
:1002C000DFF84808006830F47F40E16950EA012017
:1002D000DFF838180860206A00F0D0FB0028A5D0AD
:1002E000012069E2A069002834D0DFF880070068A7
:1002F00050F00100DFF87417086000F073FC05008F
:10030000DFF868070068800706D400F06BFC401B2C
:100310000328F5D303204FE2DFF85007006850F0C0
:100320000800DFF848170860DFF84007016831F07F
:10033000F001206A0143DFF834070160DFF8CC07E1
:10034000006830F47F40E16950EA0120DFF8BC1713
:1003500008607CE7DFF81407006840084000DFF819
:100360000C17086000F03EFC0500DFF8000700688D
:1003700080077FF56CAF00F035FC401B0328F4D3F9
:10038000032019E26068B0F5803F08D1DFF8DC0691
:10039000006850F48030DFF8D416086024E060680C
:1003A000B0F5A02F10D1DFF8C406006850F480200B
:1003B000DFF8B8160860DFF8B406006850F4803043
:1003C000DFF8A81608600FE0DFF8A006006830F438
:1003D0008030DFF898160860DFF89006006830F487
:1003E0008020DFF888160860606800280ED000F0D2
:1003F000F9FB0500DFF874060068800315D400F0EF
:10040000F1FB401B6528F5D30320D5E100F0EAFBA2
:100410000500DFF858060068800306D500F0E2FB0F
:10042000401B6528F5D30320C6E12078800729D535
:10043000DFF83C06006810F00C0004280DD0DFF84F
:100440003006006810F00C000C2838D1DFF82806C0
:10045000006810F00300022831D1DFF810060068B0
:10046000400504D5E068002801D10120A4E1DFF8AF
:100470009C06006830F0F850216950EA0160DFF80E
:100480008C160860207800076DD56069002853D06D
:10049000DFF87406006850F00100DFF86C160860A1
:1004A00000F0A0FB0500DFF86006006880075AD462
:1004B00000F098FB401B0328F5D303207CE1E068A3
:1004C000002822D0DFF8A405006850F48070DFF81F
:1004D0009C15086000F086FB0500DFF890050068B9
:1004E000400506D400F07EFB401B0328F5D3032013
:1004F00062E1DFF81806006830F0F850216950EA30
:100500000160DFF808160860BCE7DFF860050068E6
:1005100030F48070DFF85415086000F063FB0500CC
:10052000DFF8480500684005ACD500F05BFB401BD8
:100530000328F5D303203FE1DFF8CC05006840082D
:100540004000DFF8C415086000F04CFB0500DFF840
:10055000B8050068800706D500F044FB401B03285F
:10056000F5D3032028E12078400740F19280002550
:10057000DFF8A0050068C0000FD4DFF89805006818
:1005800050F08050DFF88C150860DFF888050068AF
:1005900010F08050009000980125DFF87C0500687D
:1005A000C00516D4DFF87005006850F48070DFF8DD
:1005B0006815086000F016FB0600DFF85C050068AF
:1005C000C00506D400F00EFB801B0328F5D30320E2
:1005D000F2E0A068012808D1DFF84005006850F07B
:1005E0000100DFF83815086023E0A068052810D165
:1005F000DFF82805006850F00400DFF820150860D7
:10060000DFF81805006850F00100DFF810150860E9
:100610000FE0DFF80805006840084000DFF8FC1430
:100620000860DFF8F804006830F00400DFF8EC142C
:100630000860A068002810D000F0D4FA0600DFF8A7
:10064000DC040068800719D400F0CCFA801B41F26A
:1006500089318842F3D30320AEE000F0C3FA0600EC
:10066000DFF8B8040068800708D500F0BBFA801BEB
:1006700041F289318842F3D303209DE0EDB2012D90
:1006800007D1DFF89004006830F08050DFF8841460
:100690000860A06A002800F08E80DFF8D4030068AC
:1006A00010F00C000C2800F08480A06A02284ED1C3
:1006B000DFF8B803006830F08070DFF8B01308602E
:1006C00000F090FA0500DFF8A4030068800106D569
:1006D00000F088FA401B0328F5D303206CE0206B60
:1006E000401E616B090251EA0011A06B000951EA3A
:1006F0004041E06A0143E06B4008401E51EA40512E
:10070000206C4008401E51EA4061DFF86C03016034
:10071000DFF85803006850F08070DFF8501308606D
:10072000DFF85403006850F08070DFF84C13086065
:1007300000F058FA0400DFF83403006880013AD46E
:1007400000F050FA001B0328F5D3032034E0DFF853
:100750001C03006830F08070DFF810130860DFF8C9
:100760000C03006800010CD4DFF80003006880006F
:1007700007D4DFF80403006880088000DFF8F8126F
:100780000860DFF8F4020168DFF894030140DFF845
:10079000E802016000F026FA0400DFF8D0020068E9
:1007A000800108D500F01EFA001B0328F5D30320B2
:1007B00002E0012000E0002076BD70B504000D00CD
:1007C000002C01D10120AFE0DFF85803006810F0E1
:1007D0000700A84211D2DFF84C030068C008C0002F
:1007E0002843DFF840130860DFF83803006810F092
:1007F0000700A84201D0012096E02078C00743D529
:100800006068032806D1DFF86402006880011CD408
:10081000012089E06068022806D1DFF850020068F4
:10082000800312D401207FE06068002806D1DFF841
:100830003C020068800708D4012075E0DFF82C0234
:100840000068400501D401206EE0DFF82402016851
:100850008908890060680143DFF81402016000F034
:10086000C1F90600DFF80802006810F00C006168AA
:10087000B0EB810F08D000F0B5F9801B41F289314F
:100880008842EFD303204FE02078800709D5DFF8B6
:10089000E001016831F0F001A0680143DFF8D00108
:1008A0000160DFF88002006810F00700854211D275
:1008B000DFF870020068C008C0002843DFF8641247
:1008C0000860DFF86002006810F00700A84201D05D
:1008D000012029E02078400709D5DFF8940101685C
:1008E00031F4E061E0680143DFF8840101602078C1
:1008F000000709D5DFF87801006830F460502169FD
:1009000050EAC1005A49086000F00FF8DFF8001201
:10091000574A1268C2F30312895CC84055490860FF
:10092000002000F009F9002070BD00210020002007
:100930000220022000204E4A126812F00C0F0BD049
:100940004B4A126812F00C020C2A1ED14A4A126855
:1009500012F00302012A18D144490968090705D495
:10096000DFF8A4110968C1F3032103E03F490968D6
:10097000C1F30311DFF8B02152F821103C4A12688C
:1009800012F00C0F10D108000EE0394A126812F074
:100990000C02042A01D1654806E0354A126812F0BB
:1009A0000C02082A00D16248314A126812F00C0287
:1009B0000C2A2ED13048006810F003002E4A12682D
:1009C000C2F30212521C022802D0032809D011E0FF
:1009D0005648B0FBF2F128480068C0F306204143B6
:1009E0000FE05348B0FBF2F123480068C0F3062043
:1009F000414306E0B1FBF2F11F480068C0F3062056
:100A000041431D480068C0F34160401C4000B1FBF9
:100A1000F0F0704717480068704780B5FFF7FAFF9D
:100A20004449134A1268C2F30222895CC84002BDDD
:100A30000F2202600E4A126812F0030242600C4A52
:100A4000126812F0F0028260094A126812F4E06241
:100A5000C260074A1268D20812F4E06202613148AB
:100A6000006810F0070008607047000000100240A6
:100A700008100240040000200C10024038B50400A9
:100A80000020002523480068C00002D500F0B0F81F
:100A900013E02048006850F080501E4908601D484F
:100AA000006810F080500090009800F0A1F81949FB
:100AB000096831F08051174A1160B0F5007F07D105
:100AC000812C10D3A12C01D302250CE001250AE0D2
:100AD000812C01D3032506E0802C01D1022502E000
:100AE000702C00D101250F480068C008C0002843C1
:100AF0000C4908600B48006810F00700A84201D0BC
:100B0000012000E0002032BD941002400410024099
:100B10004021000858100240007000409010024030
:100B2000FFFFEEFE00200240D01F00080024F4006A
:100B300000127A007C21000800B587B00100002077
:100B400000200022362000F0F7F8362000F005F9EA
:100B50002048006850F010001E4908601D480068D9
:100B600010F010000090009801A902A8FFF760FFA4
:100B70000598002802D1FFF750FF02E0FFF74DFF74
:100B800040001549B0FBF1F0401E1449144A1160B1
:100B900040F2E731124AD160114948600020104903
:100BA000086100200E4988600D4800F0E5F8002833
:100BB00003D10B4800F0FCF800E0012007B000BDB5
:100BC00080B500F05BFA01BD80B5054800F014F96E
:100BD00001BD00005810024040420F0000100040CC
:100BE0009CA0002001480068704700BF5CA1002065
:100BF000DFF89000006810F4C06070470021B0F585
:100C0000007F2AD1DFF87C00006810F4C060B0F5E6
:100C1000007F34D0DFF86C00006830F4C06050F41E
:100C20000070DFF860100860DFF85C000068DFF833
:100C30005C10B0FBF1F03221484300E0401E002878
:100C400004D0DFF84C1009684905F7D4DFF84000FC
:100C50000068400513D5032012E0DFF82800006883
:100C600010F4C060B0F5806F09D0DFF8180000689C
:100C700030F4C06050F48060DFF808100860002095
:100C800070470000007000400400002040420F0048
:100C90001470004010F0070032490A684FF6FF0157
:100CA0000A40314951EA00210A432E480260704748
:100CB0002C480068C0F302207047012210F01F0189
:100CC0008A402A4940B2400941F82020704702007A
:100CD00052B2002A08D50901254A40B210F00F008F
:100CE000104400F8041C03E00901224A40B21154E8
:100CF000704710B410F00700D0F10703052B01D3A3
:100D0000042301E0D0F10703041D072C01D20020C9
:100D100000E0C01E012414FA03F35B1E1940814059
:100D2000012313FA00F0401E1040084310BC704726
:100D300080B5FFF7AFFF01BD70B504000D001600D0
:100D40000020FFF7B5FF32002900FFF7D2FF0100B6
:100D5000200040B2FFF7BBFF70BD80B540B2FFF787
:100D6000ACFF01BD0CED00E00000FA0500E100E081
:100D700018ED00E000E400E010B50400002C01D103
:100D8000012014E094F83D00002805D1002084F8EB
:100D90003C00200000F070F9022084F83D00211D85
:100DA000206800F0F3F8012084F83D00002010BD19
:100DB0000168C96851F001010268D16001688A6860
:100DC000DFF830100A40062A07D001688A68DFF889
:100DD00024100A40B2F5803F01D1012100E000213A
:100DE000002905D10168096851F00101006801601E
:100DF000002070470700010010B50400206800695A
:100E000080071AD52068C068800716D57FF00200D9
:100E100021680861012020772068806910F0030FA5
:100E200003D0200000F032F905E0200000F02FF997
:100E3000200000F02DF9002020772068006940078D
:100E40001AD52068C068400716D57FF004002168D5
:100E50000861022020772068806910F4407F03D069
:100E6000200000F013F905E0200000F010F9200048
:100E700000F00EF9002020772068006900071AD5DD
:100E80002068C068000716D57FF008002168086157
:100E9000042020772068C06910F0030F03D02000E1
:100EA00000F0F4F805E0200000F0F1F8200000F078
:100EB000EFF80020207720680069C0061AD5206866
:100EC000C068C00616D57FF01000216808610820B0
:100ED00020772068C06910F4407F03D0200000F024
:100EE000D5F805E0200000F0D2F8200000F0D0F89E
:100EF0000020207720680069C0070AD52068C068F4
:100F0000C00706D57FF00100216808612000FFF7C7
:100F100057FE2068006900060AD52068C0680006F0
:100F200006D57FF0800021680861200000F0B1F84C
:100F300020680069C0050AD52068C068000606D58B
:100F40007FF4807021680861200000F0A3F8206819
:100F5000006940060AD52068C068400606D57FF0C3
:100F6000400021680861200000F095F820680069C1
:100F700080060AD52068C068800606D57FF020006C
:100F800021680861200000F087F810BD0368DFF8D1
:100F9000C820904212D0B0F1804F0FD0DFF8BC20B3
:100FA00090420BD0DFF8B820904207D0DFF8B42091
:100FB000904203D0DFF8B020904203D133F07003A9
:100FC0004A681343DFF8902090421ED0B0F1804F62
:100FD0001BD0DFF88820904217D0DFF884209042A1
:100FE00013D0DFF8802090420FD0DFF87C209042B1
:100FF0000BD0DFF87820904207D0DFF874209042C1
:1010000003D0DFF87020904203D133F44073CA68F4
:10101000134333F080034A69134303608A68C26252
:101020000A688262DFF8302090420FD0DFF8382063
:1010300090420BD0DFF83420904207D0DFF8302008
:10104000904203D0DFF82C20904201D1096901635E
:101050000121416170470000002C01400004004064
:1010600000080040000C00400034014000400140F6
:1010700000440140004801407047000002480068F9
:10108000401C0149086070475CA100207047704710
:101090007047704770477047704700002DE9F8436C
:1010A00084B006000F0091469846484680B2800002
:1010B00000F038FB0500002D0BD0542000F032FB6F
:1010C0000400002C01D0256304E0280000F0B1FBEF
:1010D00000E00024002C13D00D990C9800220392FC
:1010E00002940191009043461FFA89F94A4639005B
:1010F000300000F00AF8200000F05CF8012001E068
:101100005FF0FF3005B0BDE8F0832DE9F84305003E
:101110001E000A9F386B00EB8200B0F104085FEA02
:10112000D8085FEAC80818F00700002807D0502048
:1011300080F31188BFF34F8FBFF36F8FFEE700225C
:1011400000E0521C102A07D2885C07EB020383F8E8
:101150003400885C0028F4D1DDF82090002087F866
:101160004300B9F1070F01D35FF00609099CC7F8E6
:101170002C90C7F844900020B864381D00F00FFC94
:1011800017F1180000F00BFC3F61D9F10709C7F80F
:1011900018907F620020F864002087F85000320029
:1011A0002900404600F01EFC3860002C00D027606B
:1011B000BDE8F18310B5040000F0A2FCDFF8AC0339
:1011C0000068401CDFF8A4130860DFF8A40300687F
:1011D00000280AD1DFF898030460DFF89003006864
:1011E000012811D100F0E0F90EE0DFF88803006873
:1011F000002809D1E06ADFF878130968C96A8842D3
:1012000002D3DFF86C030460DFF86C030068401C55
:10121000DFF864130860DFF8640301680122E06A04
:1012200082401143DFF854030160211DDFF874236D
:10123000E36A1420434302EB030000F0B3FB00F029
:101240007CFCDFF83003006800280FD0DFF82003B3
:101250000068C06AE16A884208D25FF08050DFF817
:101260006C140860BFF34F8FBFF36F8F10BDE0B5F4
:10127000DFF8640401900020009000238022DFF852
:101280005C140FF2FD20FFF709FF012816D1502052
:1012900080F31188BFF34F8FBFF36F8F5FF0FF3084
:1012A000DFF83C1408600120DFF8C8120860002055
:1012B000DFF83014086000F0BEFB07BD10F1010F2D
:1012C000FBD1502080F31188BFF34F8FBFF36F8F96
:1012D000FEE7DFF894030068401CDFF88C13086019
:1012E000704738B500240025DFF87C03006800282B
:1012F00007D1502080F31188BFF34F8FBFF36F8F5A
:10130000FEE700F0FDFBDFF860030068401EDFF839
:1013100058130860DFF85003006800285BD1DFF83D
:101320004C02006800282AD155E0DFF8A803C06805
:10133000C46814F1180000F041FB201D00F03EFBD2
:10134000DFF8380201680122E06A82401143DFF8C9
:101350002C020160211DDFF84C22E36A1420434374
:1013600002EB030000F01EFBE06ADFF804120968DC
:10137000C96A884203D30120DFF87C130860DFF8D4
:10138000540300680028D0D1002C01D000F077F978
:10139000DFF854030468002C0ED000F020F8002879
:1013A00003D00120DFF850130860641E002CF4D134
:1013B0000020DFF834130860DFF83C0300680028E1
:1013C00009D001255FF08050DFF800130860BFF3FB
:1013D0004F8FBFF36F8F00F0B0FB280032BD70B5A8
:1013E0000025DFF884020068002877D1DFF8F402D6
:1013F0000468641CDFF8EC020460002C22D1DFF8E2
:10140000EC0200680068002807D0502080F31188A3
:10141000BFF34F8FBFF36F8FFEE7DFF8D002006896
:10142000DFF8CC120968DFF8C4221160DFF8C012BF
:101430000860DFF8C0020068401CDFF8B8120860DE
:1014400000F01DF9DFF898020068844235D323E0EC
:10145000301D00F0B3FAB06A002803D016F118006E
:1014600000F0ACFADFF8140101680122F06A824052
:10147000114342480160311DDFF82821F36A14202E
:10148000434302EB030000F08DFAF06A3849096823
:10149000C96A884200D30125DFF85002006800685D
:1014A000002815D0DFF844020068C068C66870687C
:1014B0008442CDD2DFF8281208603A492C480068EF
:1014C000C26A14204243885802280ED301250CE03A
:1014D0005FF0FF30DFF808120860EEE7DFF808027F
:1014E0000068401CDFF800120860DFF80C0200689A
:1014F000002800D00125280070BDDFF86C010068CD
:10150000002804D00120DFF8F01108602CE0002052
:10151000DFF8E411086019480068B0FA80F1D1F1F1
:101520001F012048142202FB01F28058002807D135
:10153000502080F31188BFF34F8FBFF36F8FFEE70A
:10154000184A1420414302EB010041684968416098
:10155000416810F10802914202D141684968416036
:101560004068C068024908607047000070A1002010
:1015700060A100207CA100208CA1002078A1002087
:1015800080B500F03FF8074800680228F9D35FF003
:101590008050DFF86C110860BFF34F8FBFF36F8F7F
:1015A000EFE7000010A0002010B5002408E0DFF8ED
:1015B0005401142101FB04F1084400F0E1F9641C1A
:1015C000072CF4D3DFF8400100F0DAF9DFF83C0132
:1015D00000F0D6F9DFF8FC0000F0D2F9084800F07E
:1015E000CFF93B4800F0CCF9DFF81C01DFF8FC1024
:1015F0000860DFF81801DFF81811086010BD00005E
:1016000018A1002010B520E00024FFF76AFE002C8E
:101610001BD100F075FADFF8FC00C068C468201D1B
:1016200000F0CCF9DFF8D4000068401EDFF8CC10E1
:101630000860DFF8E4000068401EDFF8DC10086096
:1016400000F07BFA200000F011F8DFF8CC00006811
:10165000002808D0FFF73DFEDFF8B800006800283A
:10166000D2D10124D1E710BD98A1002010B504000B
:10167000206B00F0DEF8200000F0DBF810BDDFF892
:101680006C0000680068002805D15FF0FF30DFF8CB
:101690005010086008E0DFF854000068C068C068B7
:1016A0004068DFF83C1008607047DFF870000068A1
:1016B000002801D1012007E0DFF86400006800285D
:1016C00001D1022000E000207047000004ED00E09E
:1016D0002CA1002004A1002094A100208421000856
:1016E00090A1002074A1002080A1002064A100200E
:1016F00068A1002088A1002084A1002070A1002002
:1017000004ED00E010A00020DCA00020F0A00020EC
:1017100068A1002018A100206CA100207CA100205D
:1017200098A1002070B504000025FFF7D2FD8D4878
:101730000068002801D100F0B7F88B480068044227
:1017400067D1002C15D089480068041914F0070FE0
:101750000FD014F1080014F00704041B14F0070F55
:1017600007D0502080F31188BFF34F8FBFF36F8FE6
:10177000FEE7002C4DD07E480068A04249D37D4949
:101780007C48066801E0310036687068A04202D2E9
:1017900030680028F7D173480068864239D008685D
:1017A000724A126800EB0205306808606F480068F2
:1017B00040007168091B884214D206EB040111F045
:1017C0000700002807D0502080F31188BFF34F8F07
:1017D000BFF36F8FFEE77068001B486074600800FD
:1017E00000F093F8624801687068091A6048016067
:1017F0005F48006860490968884203D25C48006815
:101800005D490860716858480068014371600020B4
:101810003060FFF766FD15F00700002807D0502064
:1018200080F31188BFF34F8FBFF36F8FFEE728005F
:1018300070BD10B5002836D04C490968494200EB0C
:101840000104606848490968084207D1502080F3C4
:101850001188BFF34F8FBFF36F8FFEE7206800281A
:1018600007D0502080F31188BFF34F8FBFF36F8FE5
:10187000FEE760683C490968084214D020680028E7
:1018800011D161683848006881436160FFF721FD2C
:10189000374801686068411835480160200000F051
:1018A00034F8FFF71EFD10BD4FF42042334911F00C
:1018B000070F05D0C91DC908C900521A2F48821840
:1018C0002C48016000202B4B5860521827480068B4
:1018D000121AD208D200234802600020214B1B6854
:1018E000586000201F4B1B681860521A4A601D4840
:1018F000006808604868204A106048681C49086011
:101900005FF000401849086070471A4A00E012680A
:1019100011688142FBD351681144814204D151685E
:1019200040684118516010004168014413689942B1
:1019300011D111680B4B1B68994208D0436811689C
:101940004968CB18436011680968016005E00549E2
:101950000968016001E011680160824200D01060F6
:101960007047000048A1002054A100208C210008ED
:101970004CA1002040A1002050A100201000002018
:1019800010F1080141605FF0FF31816010F1080142
:10199000C16010F108010161002101607047002160
:1019A0000161704742684A6093688B609368596030
:1019B000916008610168491C016070470169826893
:1019C00043689A60426883685A604A68824201D1DB
:1019D00082684A60002202610868401E0860086848
:1019E00070470000001F5FF080730360001F49080C
:1019F00049000160001F0FF21501016014380260F8
:101A0000001F7FF0020101602038704761480068C4
:101A100010F1010F07D0502080F31188BFF34F8FD2
:101A2000BFF36F8FFEE7502080F31188BFF34F8F15
:101A3000BFF36F8FFEE7E0B557480068574988420B
:101A400007D1502080F31188BFF34F8FBFF36F8F02
:101A5000FEE7514800685249884207D1502080F380
:101A60001188BFF34F8FBFF36F8FFEE74D480178AA
:101A70000191FF21017001788DF800109DF8001090
:101A800011F05001484A11700721484A116009E0DD
:101A900046490968491E454A11609DF800104900F1
:101AA0008DF800109DF800100906F1D43F4909682F
:101AB00009023E4A11603D49096811F4E0613B4A60
:101AC0001160019901703A48006850F4700038497B
:101AD00008603748006850F070403549086000F0F1
:101AE0006DF800202B49086000F0C2F8314800680A
:101AF00050F040402F49086000F0AEF800200EBDC5
:101B0000502080F31188BFF34F8FBFF36F8F2148B0
:101B10000068401C1F4908601E48006801280BD15E
:101B200025480068000607D0502080F31188BFF3D5
:101B30004F8FBFF36F8FFEE770471648006800288D
:101B400007D1502080F31188BFF34F8FBFF36F8F01
:101B5000FEE710480068401E0E4908600D48006806
:101B6000002802D1002080F31188704780B55020F2
:101B700080F31188BFF34F8FBFF36F8FFFF72FFCF8
:101B8000002803D05FF080500B490860002080F3EC
:101B9000118801BD0000002000ED00E071C20F417E
:101BA00070C20F4100E400E09CA1002058A1002079
:101BB00020ED00E034EF00E004ED00E006480068AE
:101BC0004FF47A71B0FBF1F0401E04490860072021
:101BD00003490860704700BF0400002014E000E0E3
:101BE00010E000E0EFF30980BFF36F8F244B1A6819
:101BF0001EF0100F08BF20ED108A20E9F04F106092
:101C000008B44FF0500080F31188BFF34F8FBFF33B
:101C10006F8FFFF772FC4FF0000080F3118808BC53
:101C200019680868B0E8F04F1EF0100F08BFB0EC5C
:101C3000108A80F30988BFF36F8F7047104B1968C3
:101C40000868B0E8F04F80F30988BFF36F8F4FF05A
:101C5000000080F3118870470A480068006880F32C
:101C6000088862B661B6BFF34F8FBFF36F8F00DF96
:101C7000DFF81400016841F4700101607047000052
:101C800060A1002008ED00E088ED00E080B500F0E4
:101C900069F800F005F800F071F8FFF7E8FAFEE7E0
:101CA00000B597B006A8442100F078F801A81421E7
:101CB00000F074F82848006850F080502649086009
:101CC0002548006810F08050009000984FF4007094
:101CD000FEF794FF002803D08021204800F040F850
:101CE0001D48006830F080501B49086010200690A5
:101CF00001200C9070200E9000200D90022010907A
:101D000001201190012012901420139002201690AF
:101D1000072014900420159006A8FEF735FA002835
:101D200003D09E210D4800F01BF80F2001900320E6
:101D300002900020039000200490002005900421D0
:101D400001A8FEF73AFD002803D0AB21034800F0BC
:101D500007F817B000BD000058100240441F0008EB
:101D6000FEE7000080B50320FEF7E2FF0020FEF74B
:101D7000E3FE00F017F8002002BD000010B540F6A9
:101D8000040100225FF08054200000F057F8024860
:101D90005FF08051086010BD04080010002200F0C0
:101DA00081B8000080B52348006850F00100214947
:101DB00008602048006810F00100009000981E485C
:101DC000006850F080501C4908601B48006810F003
:101DD0008050009000980320FEF7AAFF0022002107
:101DE0007FF00B00FEF7A8FF002200217FF00A0021
:101DF000FEF7A2FF002200217FF00900FEF79CFF02
:101E0000002200217FF00400FEF796FF002200214F
:101E10007FF00300FEF790FF00220F217FF001000A
:101E2000FEF78AFF00220F215FF0FF30FEF784FFEC
:101E300001BD00BF601002405810024062F30F2243
:101E400062F31F42401810F0030308D0C91A1FD3D1
:101E5000DB0748BF00F8012D28BF20F8022D130032
:101E600030B414461546103928BF20E93C00FAD892
:101E7000490728BF20E90C0048BF40F8042D89001D
:101E800028BF20F8022D48BF00F8012D30BC704754
:101E9000C91818BF00F8012DCB0728BF00F8012D85
:101EA0007047000000B500BF1300964694461039F5
:101EB00028BFA0E80C50FAD85FEA417C28BF0CC0CC
:101EC00048BF40F8042BC90728BF20F8022B48BFA1
:101ED00000F8012B00BD00001348006850F47000AA
:101EE000114908601148006850F001000F4908606E
:101EF00000200F4908600D4801680E4801400B485A
:101F000001604FF480500C4908600848006830F4C4
:101F10008020064908600020084908605FF00060E2
:101F2000074908607047000088ED00E0001002409B
:101F300008100240FFFFF6EA0C10024018100240A1
:101F400008ED00E0463A5C776F726B737061636511
:101F50005C73746D6963726F656C656374726F6EC8
:101F60006963732D776F726B73706163655C535433
:101F70004D33324C34373652435F424739365C4337
:101F80006F72655C5372635C6D61696E2E630000F5
:101F900019E050F8042BD30744BFA9F101039A18A4
:101FA000091F0023042942F8043BF9D25FEA817C2F
:101FB000134604D54FF0000CA2F800C09B1CC907C3
:101FC00044BF0021197050F8041B0029E1D170476B
:101FD000A0860100400D0300801A060000350C00A9
:101FE00040420F0080841E0000093D0000127A006C
:101FF0000024F40000366E010048E801006CDC02A9
:1020000010B500F013F802000023DB430024106831
:10201000984203D011000220ABBE14605068984271
:1020200003D0111D0220ABBE546010BD01487047A3
:10203000000000000800002010B450F8041B79B123
:102040000268436802440830DC0744BFA9F1010478
:10205000E31852F8044B43F8044B091FF9D1ECE79D
:1020600010BC704710B5074979441831064C7C44C0
:10207000163404E00A68081D114488470146A1424D
:10208000F8D110BD2C0000004C0000004EF6885125
:10209000CEF20001086840F470000860BFF34F8F73
:1020A000BFF36F8F4FF00070E1EE100A7047000031
:1020B000E1FEFFFF90A100001000002000000000E2
:1020C00079FFFFFF100000009800000000000020D2
:1020D0000000000000F00DF8002801D0FFF7C2FF5B
:1020E000AFF300800020AFF30080FFF7CFFD00F0DA
:1020F00002F80120704700F001B80000074638469A
:1021000000F002F8FBE7000080B5FFF779FF024A14
:1021100011001820ABBEFBE7260002007047FEE767
:10212000FEE7FEE7FEE7704780B500F001F801BD6D
:1021300080B5FFF7BAFA012801D0FFF717FD01BDFE
:102140000000000000000000010203040607080967
:102150000148804701480047D91E00087121000846
:10216000AAAAAAAA00093D00FFFFFFFFFFFFFFFF89
:10217000AFF30080FFF78AFFFFF7ACFF000000001D
:102180000102030449444C4500000000080000001F
:10219000FFF7FEBFFFF7FEBFFFF7FEBFFFF7FEBF73
:1021A000FFF7FEBFFFF7FEBFFFF7FEBFFFF7FEBF63
:1021B000FFF7FEBFFFF7FEBFFFF7FEBFFFF7FEBF53
:1021C000FFF7FEBFFFF7FEBFFFF7FEBFFFF7FEBF43
:1021D000FFF7FEBFFFF7FEBFFFF7FEBFFFF7FEBF33
:1021E000FFF7FEBFFFF7FEBFFFF7FEBFFFF7FEBF23
:1021F000FFF7FEBFFFF7FEBFFFF7FEBFFFF7FEBF13
:10220000FFF7FEBFFFF7FEBFFFF7FEBFFFF7FEBF02
:10221000FFF7FEBFFFF7FEBFFFF7FEBFFFF7FEBFF2
:10222000FFF7FEBFFFF7FEBFFFF7FEBFFFF7FEBFE2
:10223000FFF7FEBFFFF7FEBFFFF7FEBFFFF7FEBFD2
:10224000FFF7FEBFFFF7FEBFFFF7FEBFFFF7FEBFC2
:10225000FFF7FEBFFFF7FEBFFFF7FEBFFFF7FEBFB2
:10226000FFF7FEBFFFF7FEBFFFF7FEBFFFF7FEBFA2
:10227000FFF7FEBFFFF7FEBFFFF7FEBFFFF7FEBF92
:10228000FFF7FEBFFFF7FEBFFFF7FEBFFFF7FEBF82
:10229000FFF7FEBFFFF7FEBFFFF7FEBFFFF7FEBF72
:1022A000FFF7FEBFFFF7FEBFFFF7FEBFFFF7FEBF62
:1022B000FFF7FEBFFFF7FEBFFFF7FEBFFFF7FEBF52
:1022C000FFF7FEBFFFF7FEBFFFF7FEBFFFF7FEBF42
:04000005080021715D
:00000001FF
